:020000040800F2
:1000000000020010E9F40008D52401081D220108AF
:100010005922010895220108D122010800000000A0
:10002000000000000000000000000000413A01084C
:10003000F52301080000000065240108053A0108C5
:1000400089F4000889F4000889F4000889F400089C
:1000500089F4000889F4000889F4000889F400088C
:1000600089F4000889F4000889F4000889F400087C
:100070005931010889F400081D31010889F400088C
:1000800089F4000889F40008194D010889F4000872
:1000900089F4000889F4000889F4000889F400084C
:1000A00089F4000889F4000889F4000889F400083C
:1000B000C957010889F4000889F4000889F4000888
:1000C00089F4000889F4000889F4000889F400081C
:1000D00089F4000869300108A5300108E130010801
:1000E00089F4000889F4000889F4000889F40008FC
:1000F00089F4000889F4000889F4000889F40008EC
:1001000089F40008BD3D010889F4000889F400085D
:1001100089F4000889F4000889F4000889F40008CB
:1001200089F4000889F4000889F40008813D010879
:1001300089F4000889F4000889F4000889F40008AB
:1001400089F4000889F4000889F4000889F400089B
:1001500089F4000889F4000889F4000889F400088B
:1001600089F4000889F4000889F4000889F400087B
:1001700089F4000889F4000889F4000889F400086B
:1001800089F4000889F4000808B5062002F02EF86A
:10019000012011F0ABFB00BF80B514460A4A156878
:1001A000064684B00F46E86854B1084D1A4608491F
:1001B000009733460195029400F00CFBFFF7E4FF33
:1001C000044D2C46F2E700BF2CC8020874E6020872
:1001D00084E60208F4CE020808B513460022FFF7B1
:1001E000DBFF00BF30B405460C461346022029460B
:1001F000224630BC11F078BB08B511F099FB08BD60
:10020000F0B50C4683B00546002976D010B183695D
:10021000002B60D03A4B9C4262D03A4B9C4268D053
:10022000394B9C4202BF394B1B68DC68012001A995
:1002300015F028FDA38903F400731BB204F16007D5
:10024000002B39D02846214600F01CF9236B0646C6
:100250003BB12846216A984736EA200628BF4FF06E
:10026000FF36A38903F080031BB2002B3CD1616BE6
:1002700041B104F14403994202D0284600F040FC09
:1002800000236363A16C21B1284600F039FC0023F0
:10029000A36400F0C3F90023A381384615F0B6FC2F
:1002A000384615F073FC00F0BFF9019801A915F06C
:1002B000E9FC304603B0F0BD384615F06DFCB4F9EA
:1002C0000C60002EBED1384615F0A0FC019801A9A3
:1002D00015F0D8FCEDE700F0B9F9094B9C429CD130
:1002E0000A4B1B685C68A1E72846216900F008FCFE
:1002F000BDE7064B1B689C6898E70E46D9E700BF30
:100300000CC80208ECC70208CCC702082CC80208B7
:1003100010B5044611F00CFB2146BDE81040FFF774
:100320006FBF00BF8B8903F0080212B22DE9F041C4
:100330000D468046002A3FD14A6843F40061002AF6
:10034000A9815DDDEC6A002C4FD003F480531EB20E
:100350000023D8F80070C8F80030002E54D0AA6DE1
:1003600001F0040109B229B169686B6B521A0BB133
:100370002B6CD21A00234046296AA047421C4ED05B
:10038000AB892A6903F4805123F40063AB8109B27D
:10039000002385E80C00002950D1696BC8F8007073
:1003A00019B305F14403994202D0404600F0A8FB7E
:1003B00000206863BDE8F0810E69B6B19B070C6848
:1003C00008BF4B690E6018BF0023A41B8B600AE0B6
:1003D00032462346AF6A296A4046B8470028C0EB38
:1003E0000404064404DD002CF2DC0020BDE8F081AA
:1003F000AB8943F04003AB814FF0FF30BDE8F081A3
:100400002A6C002A9EDCF0E7296A32460123404626
:10041000A047411C024622D0A989EC6AA0E7D8F87F
:1004200000307BB9AA8929696B6002F480531BB242
:1004300022F40062AA812960002BAED0C317A86500
:10044000EB65AAE71D2B01D0162B15D1AA892B69C4
:1004500022F40062AA8100226A602B609DE7D8F82E
:100460000030002BD8D01D2B18BF162BC0D1C8F8D8
:1004700000703046BDE8F081AB8943F04003AB81AA
:10048000BDE8F08130B50B6983B00C46054693B1E9
:1004900010B18369002B2AD0204B9C422CD0204BDA
:1004A0009C422DD01F4B9C4202BF1F4B1B68DC6837
:1004B000B4F90C301BB90025284603B030BD01202B
:1004C00001A915F0DFFBA38903F400731BB203B38A
:1004D00028462146FFF726FFA38903F400731BB2C9
:1004E00005468BB1019801A915F0CCFBE4E700F0BB
:1004F000ADF80A4B9C42D2D10B4B1B685C68D7E726
:10050000094B1B689C68D3E704F1600015F07EFB83
:10051000E8E704F1600015F03FFBD9E70CC80208DA
:10052000ECC70208CCC702082CC8020810B5044664
:1005300030B111F0FDF92146BDE81040FFF7A2BF30
:10054000034B04491868BDE8104000F07FBE00BFAF
:100550002CC802088504000840F21131C0F60001E1
:1005600000F050BE08B5838903F400731BB213B9C1
:10057000603015F04BFB002008BD00BF08B5838933
:1005800003F400731BB213B9603015F005FB0020B3
:1005900008BD00BF002310B504468181C2810360FD
:1005A000436083608367036143618361194600F19F
:1005B0007000082201F0E0FC42F28153C0F6000313
:1005C000636242F2B153C0F60003A36242F2F953F0
:1005D000C0F60003E36242F23163C0F60003246216
:1005E000236310BD70B5CD010E4605F10C0101F07D
:1005F000B1F8044640B100F10C00002184E842004B
:10060000A0602A4601F0B8FC204670BD4CF62C03D1
:10061000C0F602031868FFF79FBF00BF40F6143012
:10062000C1F2000015F0B8BA40F61430C1F2000073
:1006300015F0ECBA014815F0AFBA00BF240B00105A
:10064000014815F0E3BA00BF240B001070B5044652
:10065000FFF7F0FFA569002D2CD1184B1B689C42B9
:1006600005D00123A361BDE87040FFF7E9BF144B3B
:10067000E5630126236225646564A661204600F0D7
:1006800021F86060204600F01DF8A060204600F0D0
:1006900019F80421E0602A466068FFF77BFFA06834
:1006A00008213246FFF776FFE06812210222FFF7A9
:1006B00071FFA661BDE87040FFF7C2BF2CC80208F9
:1006C0005905000870B582B001A90646012015F051
:1006D000D9FAFFF7A3FF284B1D68AB69002B35D073
:1006E0003C356B68AC68013B04D52BE0013B8034A2
:1006F0005A1C27D0B4F90C20002AF7D14FF6FF730B
:100700000025E3810123A381A56725666566A566AB
:10071000E566FFF789FF01A9019815F0B3FA256096
:10072000A560656025616561A56104F170002946D9
:10073000082201F021FC6563A563A564E5642046F9
:1007400002B070BD2C682CB12546CAE72846FFF7D9
:100750007DFFC5E730460421FFF744FF04462860CB
:100760000028F1D1FFF760FF019801A915F08AFA7E
:100770000C233360E3E700BF2CC8020808B5FFF77D
:100780004DFF11F0D5F840F27D51C0F60001BDE8F3
:10079000084000F037BD00BF08B511F0C9F840F2BD
:1007A0006551C0F6000100F02DFDBDE80840FFF7DF
:1007B0003BBF00BF0CB410B582B004AC54F8042B9E
:1007C0002346019405F0ACFA02B0BDE8104002B037
:1007D000704700BF0EB430B582B005AB054653F884
:1007E000044B019311F0A4F829462246019B05F021
:1007F00097FA02B0BDE8304003B070472DE9F04FE2
:1008000087B002FB03F617461D4604468A46DDF80C
:1008100040B0002E67D010B18269002A65D0864AA8
:10082000934500F0FB80854A934561D0844A934507
:1008300002BF844B1B68D3F80CB005A9012015F04A
:1008400021FABBF80C1001F4007212B2002A00F079
:10085000B68001F4005212B24AB9DBF8782041F4B4
:10086000005122F40052ABF80C10CBF87820DBF8E2
:100870000480B8F1000FA8BFC146C0F2A78001F004
:10088000020109B2002938D1B14601E0DBF8048049
:10089000C14542465046DBF8001040F29D8001F011
:1008A0007BFADBF800204244CBF800202046594672
:1008B000C244C8EB090901F019FD0028E6D0BBF8D5
:1008C0000C2002F4007212B2002A00F0A2800598F7
:1008D00005A9C9EB060515F0D5F9B5FBF7F52846CE
:1008E00007B0BDE8F08F3546F9E7FFF7AFFE96E7B2
:1008F000544B1B68D3F808B09FE7B14528BFB146F9
:100900005046DBF800104A4601F046FA9BE8050025
:10091000DBF834104844C9EB02020AEB09080190E5
:100920008BE80500C9EB060A002900F08180BAF1C6
:10093000000F5FD00BF14400814205D0204600F04B
:10094000DFF8DBF8003001930021CBF83410DBF83E
:1009500010300393DBF814304FF00009029302E0EB
:10096000BAF1000F46D0CBF81080CBF814A0CBF82A
:1009700000805946204601F0B9FC039BDBF80410C7
:10098000CBF81030029BCBF80490CBF81430019BCD
:10099000C1EB0A0ACBF8003088440028E0D0BBF84D
:1009A0000C1001F4007109B200293CD0059805A98A
:1009B00015F068F9CAEB0602B2FBF7F58FE70BF109
:1009C000600015F0E9F8BBF80C1042E700229146F0
:1009D000CBF80420904652E74A4601F0DDF9DBF8F7
:1009E0000410DBF80020C9EB01014A44CBF80410E5
:1009F000CBF80020BBF80C2002F4007212B21AB936
:100A00000BF1600015F002F9059805A915F03AF907
:100A100065E70BF1600015F0F9F858E7094B1B6822
:100A2000D3F804B009E70BF1600015F0EFF8BDE76B
:100A3000BAF1000F8BD1DDE70CC80208ECC7020841
:100A4000CCC702082CC80208F0B583B00D46144686
:100A50001E46074610F06CFF009639462A4623468C
:100A6000FFF7CCFE03B0F0BDF8B5224D0F460446AB
:100A700010F05AFFAB685E6826F0030606F2EF330B
:100A8000DF1BBF0A013FBF02B7F5806F07DB002104
:100A9000204610F02FFFAB689B19984204D02046E7
:100AA00010F044FF0020F8BD7942204610F022FFEC
:100AB00001300DD0104BA9681A68F61B46F00106EC
:100AC000D71B20464E601F6010F030FF0120F8BD9C
:100AD0000021204610F00EFFAB68C21A0F2ADEDD9F
:100AE00006490968401A044942F0010208605A6048
:100AF000D5E700BF0C030010440B001014070010D2
:100B00002DE9F0410D460646002955D010F00CFFA6
:100B100055F8041CDFF868C1A5F1080421F00103B1
:100B2000E218DCF808005768904227F0030765D008
:100B300011F00101576032D00021D0194068C00780
:100B400006D4DB19906800294AD0D268C260906050
:100B500043F001026260E350E1B9B3F5007F2DD3A9
:100B60005A0A042A66D89809383041000CEB810CE7
:100B70004349DCF80820624567D0516821F0030141
:100B80008B4202D292689445F7D1D368E360A260A9
:100B9000D4609C603046BDE8F04110F0C7BE55F807
:100BA000085C641B0CF10808A06840452B443FD04A
:100BB000E568C560A860C0E7BDE8F081DB080CEB24
:100BC000C302DCF804009168E2609B10012505FA7D
:100BD00003F31843A160CCF804009460CC60D9E71B
:100BE000284DA842B1D143F00102CCF81440CCF812
:100BF0001040E060A0606260E350CBE7FF18CB07D5
:100C000007D455F8083CE41AFF18A268E368D360DB
:100C10009A601D4BCCF808401B6847F001029F42C8
:100C20006260B7D3194B30461968FFF71DFFB1E773
:100C3000012182E702F15B004100142A96D9542A6F
:100C40000CD8180B6E30410090E74B6880100125DE
:100C500005FA00F003434B60134697E7B2F5AA7F0D
:100C600003D8D80B7730410080E740F254518A42D4
:100C700003D8980C7C30410078E7FC217E2075E792
:100C80000C0300101403001018070010400B001094
:100C900000B583B00093D31700F010F803B000BD87
:100CA00070B50D461446064610F042FE31462A46FF
:100CB0002346BDE87040FFF7EBBF00BF2DE9F04FC2
:100CC00097B00E4614461D46DDF88080074618B1E1
:100CD0008369002B00F0A880A14B9E4200F0AA80FF
:100CE000A04B9E4200F038819F4B9E4202BF9F4B1B
:100CF0001B68DE68012003A914F0C4FFB38903F464
:100D0000007212B2002A40D003F48473B3F5847FDA
:100D100045D0D6F82C90B9F1000F49D0B8F1010FA9
:100D200053D0B8F1020F02D0B8F1000F73D14FF0D9
:100D3000000B3369DA46002B00F06D81B08940F674
:100D40001A0303405BB900F480631BB2002B7BD114
:100D5000874B994500F0648140F40060B0813846CB
:100D60003146FFF78FFB002800F0D880B38903F4E9
:100D700000731BB2002B23D0039803A914F082FF49
:100D80004FF0FF3017B0BDE8F08F06F1600014F0AF
:100D900003FFB38903F48473B3F5847FB9D1384674
:100DA0003146FFF76FFBD6F82C90B9F1000FB5D1A3
:100DB000B38903F400731D221BB23A60002BDBD110
:100DC00006F1600014F022FFD6E738463146FFF7FF
:100DD00059FBB38903F4805212B2002A00F010814B
:100DE000D6F858A003F0040212B2002A7ED103F014
:100DF00008031BB2002B00F0FA80326833690AB195
:100E0000D21A924414EB0A0445EBEA754FF0010B39
:100E10004FF000088FE7B38903F4007316221BB26A
:100E20003A60002BA8D1CBE7FFF710FC4C4B9E4259
:100E30007FF456AF4D4B1B685E685BE7B289129B2F
:100E400042F480623365B281A446B8F1000F58D1F4
:100E5000BBF1000F40F0CD80B38903F480531BB287
:100E6000002B00F0F080B06DD6F804E0716BCEEB93
:100E7000000A002900F0F480306CC0EB0A0AF36B22
:100E80003269F2449B1AC3EB0A0AC318D44571DBDA
:100E90000AEB030084456DD2CAEB0C0A5244CAEB3C
:100EA000030386E80C0041B106F14403994202D0E5
:100EB0003846FFF725FE00237363B38923F0200330
:100EC000B38106F170000021082201F055F8B389C2
:100ED00003F400731BB21BB906F1600014F096FE18
:100EE000039803A914F0CEFE00204BE77268736BE1
:100EF000C2EB0A0A002B7AD0326C3369C2EB0A0AC1
:100F000080E73846B6F90E1004AA10F073FE0028E8
:100F10007FF425AF0A9B03EB040C99E73846316A4E
:100F200022464346C84701303FF420AF716B41B1C0
:100F300006F14403994202D03846FFF7E1FD002351
:100F40007363B2893369002122F4026233607160F5
:100F5000B28106F17000B7E7044B1B689E68C9E6D2
:100F60000CC80208ECC70208CCC702082CC802084B
:100F7000F9250008336D316ACDF804C05B420CEAF4
:100F8000030A384600235246C8470130DDF804C042
:100F90003FF4E5AE3369716B33600023736051B188
:100FA00006F14403994204D03846FFF7A9FDDDF865
:100FB00004C000237363B389BCEB0A0A23F0200347
:100FC000B38110D03846314601F090F900287FF403
:100FD000C6AE73689A453FF6C2AE3268CAEB0303E9
:100FE000524486E80C0006F1700000216CE733697A
:100FF00008E7716BD6F804E0002931D0306C3EE789
:1010000043463846316AC847B0F1FF3F8246B3894C
:101010007FF4E8AEABE63846314600F0CBFA8DE619
:10102000B6F90E100029FFF697AE384604AA10F064
:10103000E1FD30B9069B03F47043B3F5004F3FF474
:10104000FDAEB08988E6316ACDF804C00123384688
:101050005A46C847431CDDF804C07FF405AF7EE65E
:10106000336832699B1AC3EB0A0A002173440DE707
:101070002DE9F041069E074614461D4610F058FC27
:10108000394622462B460696BDE8F041FFF716BECC
:1010900008B500F00BF808BD10B5044610F048FC88
:1010A0002146BDE81040FFF7F3BF00BF70B50C4606
:1010B00082B0054618B18369002B00F08280484B4E
:1010C0009C4200F08480474B9C4200F08480464B59
:1010D0009C4202BF454B1B68DC68012001A914F04B
:1010E000D1FDA38903F4007212B2002A35D0E26A5E
:1010F000002A3AD003F0080212B2002A44D103F4C5
:10110000805212B2002A49D0A56D03F0040212B237
:10111000BAB16168626B6D1A0AB1226CAD1A03F440
:1011200000731BB21BB904F1600014F06FFD01984D
:1011300001A914F0A7FD2A46EB171046194602B084
:1011400070BD03F0080212B2002AE8D02268002A1B
:10115000E5D02169521AAD18E1E704F1600014F0FE
:101160001BFDE26AA389002AC4D103F400731D2287
:101170001BB22A6003B3019801A914F083FD4FF05C
:10118000FF324FF0FF33D8E728462146FFF77AF9C0
:10119000A38903F4805212B2002AB5D10123284654
:1011A000E66A216AB047421C0546A389ADD103F423
:1011B00000731BB2002BDED104F1600014F026FD99
:1011C000D9E7FFF743FA064B9C427FF47CAF074B0D
:1011D0001B685C6881E7054B1B689C687DE700BF66
:1011E0000CC80208ECC70208CCC702082CC80208C9
:1011F00010B5044610F09CFB2146BDE81040FFF7F7
:1012000055BF00BF2DE9F04110F13C06884619D0CA
:1012100000277568B468013D0ED4A389013D43B130
:10122000012B06D9B4F90E300133204601D0C04756
:10123000074380346B1CF0D13668002EE9D1384664
:10124000BDE8F08137463846BDE8F0812DE9F84326
:1012500010F13C06804689461AD000277568B468AC
:10126000013D0FD4A389013D4BB1012B07D9B4F93E
:101270000E3001332146404601D0C8470743803431
:101280006A1CEFD13668002EE8D13846BDE8F883F5
:1012900037463846BDE8F8832DE9F04186B002FBB9
:1012A00003F61D4601AB0393012390460C9C01916C
:1012B000029605960493074610B18369002B43D02C
:1012C0002D4B9C4245D02D4B9C4250D02C4B9C42E8
:1012D00002BF2C4B1B68DC686946012014F0D2FC6D
:1012E000A18901F400731BB2002B27D001F4005335
:1012F0001BB233B9A36F41F4005123F40053A18111
:10130000A3673846214603AA05F0C0FDA38903F46C
:1013100000731BB240B903B30098694614F0B2FCE5
:10132000284606B0BDE8F081E3B10098694614F0A4
:10133000A9FC059D751BB5FBF8F5F1E704F160000C
:1013400014F02AFCA189D1E7FFF780F90A4B9C42EF
:10135000B9D10C4B1B685C68BEE704F1600014F067
:1013600055FCD9E704F1600014F050FCDDE7054BB3
:101370001B689C68B0E700BF0CC80208ECC70208F5
:10138000CCC702082CC80208F0B583B00D4614463D
:101390001E46074610F0CCFA009639462A462346E8
:1013A000FFF77AFF03B0F0BD30B50C4683B00546B9
:1013B00010B18369002B3CD0244B9C423ED0244B7F
:1013C0009C423FD0234B9C4202BF234B1B68DC68EE
:1013D000012001A914F056FCA38903F400731BB289
:1013E000C3B16368013B002B63601CDB236813F807
:1013F000015B2360A38903F400731BB21BB904F1E2
:10140000600014F003FC019801A914F03BFC28468D
:1014100003B030BD04F1600014F0BEFB6368013B13
:10142000002B6360E2DA2846214601F011F80546F8
:10143000E0E7FFF70BF9054B9C42C0D1064B1B6858
:101440005C68C5E7044B1B689C68C1E70CC80208D0
:10145000ECC70208CCC702082CC8020830B583B01C
:10146000044610F065FA20B110F062FA8369002B8F
:101470002ED0274B9C4232D0264B9C4243D0264B49
:101480009C4202BF254B1B68DC68012001A914F0B7
:10149000F9FBA38903F400731BB2002B23D063680C
:1014A000013B002B636027DB236813F8015B23609B
:1014B000A38903F400731BB21BB904F1600014F09C
:1014C000A5FB019801A914F0DDFB284603B030BD4F
:1014D00010F02EFAFFF7BAF80D4B9C42CCD10F4B0F
:1014E0001B685C68D1E704F1600014F055FB636889
:1014F000013B002B6360D7DA10F01AFA214600F0A6
:10150000A7FF0546D4E7054B1B689C68BDE700BFF5
:101510000CC80208ECC70208CCC702082CC8020895
:1015200010B5144622B110460A4901F003F908B972
:10153000094810BD2046084901F0FCF80028F7D002
:101540002046064901F0F6F8034B00280CBF184668
:10155000002010BD58DD020854DD0208F4CE020858
:1015600040F29020C1F20000704700BF40F290238B
:10157000C1F20003186A704700487047B4020010B7
:101580000020704700487047D402001038B50C4660
:10159000054610F0CDF929462246BDE83840FFF750
:1015A000BFBF00BF08B510F0C3F9014808BD00BFB8
:1015B000D4020010F0B58B8903F0020212B293B08E
:1015C0000C460546002A3CD1B1F90E1000291ADB61
:1015D0006A4610F00FFB002814DB029A0E9B02F4FF
:1015E0007042B2F500514F424F41002BCCBF1E4616
:1015F0004FF48076B2F5004F2AD0A38943F40063FC
:10160000A3810CE0A38903F0800636B243F40063A3
:10161000002E0CBF4FF480764026A3810027284679
:10162000314600F097F8A389002827D01B4A43F0E1
:1016300080032A62A38120602061666197B913B09C
:10164000F0BD01F147030B600B6101234B61F6E72D
:10165000E26A13498A42D0D1A289236542F48063A9
:10166000A381DCE72846B4F90E1010F07BFA0028BD
:10167000E5D0A38943F00103A381E0E703F40072FE
:1016800012B2002ADBD143F0020304F14702A38126
:101690000123226022616361D1E700BF5905000880
:1016A000F9250008F0B4124EB3685F6827F003070D
:1016B0000F2FD4BF002101213A46022506EB8504F5
:1016C000E3689C4207D05868DB6820F003000131D2
:1016D0009C420244F7D10235B5F5807FEED1054B2F
:1016E00018685960801AD8611A625F62F0BC70474E
:1016F0000C030010440B0010F8B540F644340646C5
:10170000C1F2000408460F4610F00EF9FFF7CAFFB9
:101710000FCC35460FC50FCC0FC594E8030085E804
:101720000300384610F002F93046F8BD10B5044603
:1017300010F0FEF82146BDE8104000F00BB800BFE5
:1017400010B5044610F0F4F82146BDE81040FFF74C
:10175000D7B900BF2DE9F04F01F10B05162D83B06D
:1017600006462CD925F00705EB0F8D422CBF1946F4
:1017700043F0010100292BD1304610F0D5F8B5F522
:10178000FC7F29D2B94F4FEAD50C07EBCC03DC68BC
:101790009C4200F0EE816368E268A16823F00303D5
:1017A000E318CA605868916040F001005860304604
:1017B00010F0BCF80834204603B0BDE8F08F0023D9
:1017C00010258D422CBF194643F001010029D3D0CA
:1017D0000C2333600024EEE75FEA552C04BF4FEA88
:1017E000D50C4FEA4C0140F08480A04F07EB8101FB
:1017F000CC68A14206D10DE0002B80F23B81E46869
:10180000A14207D0626822F00302531B0F2BF3DDC5
:101810000CF1FF3C0CF1010C944B3C6903F1080EF8
:10182000744508BFD3F8049022D0616821F0030109
:101830004A1B0F2A00F36A81002AC3F814E0C3F898
:1018400010E061DAB1F5007F80F03681CA0803EB61
:10185000C2014FF00109921009FA02F95A6888682A
:10186000E16049EA0209A060C3F804908C60C4609A
:1018700001204FEAAC0300FA03F048454ED819EABC
:10188000000F07D12CF0030C400019EA000F0CF1F7
:10189000040CF9D007EBCC094C46E046E3689C42C7
:1018A00007D146E1002A80F26E81DB689C4200F09D
:1018B0004081596821F003014A1B0F2AF2DD1C46C2
:1018C0005919D86854F808CF8A5045F0010542F0FC
:1018D0000102CCF80C00C0F808C05D607961396184
:1018E000C1F80CE0C1F808E04A60304610F01EF87C
:1018F00061E7BCF1040F00F2CB804FEA951C0CF1BC
:10190000380C4FEA4C0170E7611830464B6843F0E1
:1019100001034B6010F00AF808344CE7BC686368B8
:1019200023F003094D4504D8C5EB09030F2B00F341
:101930008F80DFF83CA1D7F80834DAF800100133C3
:1019400029441BBF01F20F4121F47F7B01F1100BF1
:101950002BF0030B04EB09023046594601920FF0BD
:10196000C9FFB0F1FF3F8046019A00F053818242E7
:1019700000F21F81DAF8043042455B44CAF80430B3
:1019800000F05181D7F8081401310DBF374BC2EB7D
:1019900008029B18C3F8088418BFCAF8043018F06E
:1019A00007021CBFC2F10803984408EB0B0314BFE5
:1019B000C2F581624FF480629B059B0DC3EB020B65
:1019C000304659460FF096FF431C00F03881C8EBB3
:1019D00000025A4442F00102DAF80430C7F80880E5
:1019E0005B44BC42CAF80430C8F8042015D0B9F1F1
:1019F0000F0F40F2FE806268A9F10C0121F007018F
:101A0000601802F0010E41EA0E0E05220F29C4F8FB
:101A100004E04260826000F21681DAF82C20BC6893
:101A2000934284BF124AD362DAF83020934284BFD3
:101A30000F4A1363626822F003029542C5EB02036A
:101A400001D80F2B04DC30460FF070FF0024B2E603
:101A5000621943F0010345F00105656030465360AB
:101A6000BA600FF063FF0834A5E600BF0C03001056
:101A7000400B0010A218E3685068A16840F0010014
:101A80005060CB60996030460FF050FF083492E60A
:101A9000BCF1140F9CBF0CF15B0C4FEA4C017FF6BC
:101AA000A4AEBCF1540F00F28D804FEA153C0CF14E
:101AB0006E0C4FEA4C0198E64B0A042B72D9142B9A
:101AC0009CBF03F15B094FEA490008D9542B00F28F
:101AD000C2804FEA113909F16E094FEA490007EB5C
:101AE0008000DFF8B4818368834275D05A6822F0A1
:101AF0000302914202D29B689842F7D1D968D7F885
:101B00000490E160A360DC608C60B1E6611942F092
:101B1000010045F001056560596119614860C1F82F
:101B20000CE0C1F808E08A5030460FF0FFFE0834A0
:101B300041E608F10108083418F0030F7FF4AEAE57
:101B40004B461CF0030FA3F108020CF1FF3C00F020
:101B50009A801B689342F4D07B68400098423FF61D
:101B6000DDAE00283FF4DAAE034200F09180C446B7
:101B700090E604F108036469A34208BF0CF1020C6B
:101B80003FF44AAE07E659181C464868DB6854F82B
:101B9000082F40F001004860D3609A6030460FF093
:101BA000C5FE08E64FEA911909F138094FEA4900E4
:101BB00095E7BC423FF4DEAE374B9C68626822F08A
:101BC00003023AE7BCF5AA7F19D84FEAD53C0CF1DD
:101BD000770C4FEA4C0108E6D8F804204FEAA9092F
:101BE000012101FA09F141EA0209C8F804901946F5
:101BF00087E70123C8F80430444600221DE740F27D
:101C000054539C450BD84FEA954C0CF17C0C4FEA91
:101C10004C01EAE5BC68626822F003020DE7FC2192
:101C20004FF07E0CE1E59105890D00297FF4AAAE05
:101C3000BA680BEB090141F001015160EDE60122A8
:101C40004FF0000BC8E6304604F10801FEF758FFDC
:101C5000124B5B68E1E6B3F5AA7F06D84FEAD139AB
:101C600009F177094FEA490039E740F25452FC2064
:101C700093424FF07E099EBF4FEA914909F17C09DA
:101C80004FEA49002BE77B6823EA00037B6064E7A7
:101C9000400008F1040867E70C030010400B001037
:101CA000830770B4C9B240D0541E002A3FD00378D5
:101CB0008B4221D0431C04E004B30278013C8A42E9
:101CC0001AD013F0030F184603F10103F4D1032CCB
:101CD00016D8651E94B103788B420DD0421C0023A8
:101CE00002E004788C4207D09D42104603F10103C4
:101CF00002F10102F5D1002070BC70472046FBE7DD
:101D000041EA012646EA064602460430136873405B
:101D1000A3F1013525EA030313F0803F03D1043C0E
:101D2000032CF1D8D5E71046D3E71446CFE7104689
:101D3000E2E700BF032A70B422D941EA00039B07FF
:101D400013D005780C78013A0023A54206D01BE099
:101D500010F8015F11F8014FA54215D1934203F12C
:101D60000103F5D1002070BC70470D6806680C4671
:101D7000034604310430AE4208D1043A032AF4D8B1
:101D8000002ADED11046EEE7281BECE72146184674
:101D9000002AD6D1F6E700BF0F2AF0B43FD941EAB6
:101DA00000039B073DD10C460346154626681E607E
:101DB00066685E60A6689E60E668103DDE6010346E
:101DC00010330F2DF2D8A2F1100525F00F0502F007
:101DD0000F041035032C00EB0503294423D9043CE0
:101DE0004FEA940C01EB8C070C4604371D4654F85F
:101DF000046BBC4245F8046BF9D10CF10104A4005A
:101E000002F0030209191B193AB101399A1811F8A5
:101E1000014F03F8014B9342F9D1F0BC70470346E0
:101E2000F2E70346F1E72246EEE700BF8842F0B44E
:101E300011D98C18A0420ED28518531E4AB12146E2
:101E40002A4611F8014D013BB3F1FF3F02F8014D65
:101E5000F7D1F0BC70470F2A3FD941EA00039B0736
:101E60003DD10C460346154626681E6066685E60D6
:101E7000A6689E60E668103DDE60103410330F2DBA
:101E8000F2D8A2F1100525F00F0502F00F0410356D
:101E9000032C00EB0503294423D9043C4FEA940C9E
:101EA00001EB8C070C4604371D4654F8046BBC420A
:101EB00045F8046BF9D10CF10104A40002F003020F
:101EC00009191B19002AC4D001399A1811F8014FB9
:101ED00003F8014B9342F9D1BBE70346F2E703460F
:101EE000F2E72246EEE700BF531E70B40446C01866
:101EF000451C15F0030FC9B23BD0FAB1E25C8A422F
:101F00001DD0024605E0E3B112F8014D013B8C42C1
:101F100015D0013812F0030FF5D1032B13D85A1E38
:101F20007BB103788B420AD0431E03E00478013A68
:101F30008C4204D01846013B002AF7D1104670BCF1
:101F400070471846FBE741EA012646EA0646C21EEC
:101F50001046043A04687440A4F1013525EA0404EB
:101F600014F0803F03D1043B032B1046F0D803301C
:101F7000D5E71346D1E700BF70B48407034642D0CB
:101F8000541E002A3DD0CEB203E0621E002C38D091
:101F9000144603F8016B9A071D46F6D1032C29D984
:101FA000CAB20F2C42EA022242EA024284BF2B4606
:101FB000264611D9103E1A605A609A60DA601033D2
:101FC0000F2EF7D8A4F1100323F00F0304F00F0431
:101FD0001033032C1D440DD92E462346043B032BFE
:101FE00046F8042BFAD8231F23F00303043304F02C
:101FF0000304ED182CB1C9B22C1905F8011BA54238
:10200000FBD170BC704705461446C7E770B50D4656
:1020100082B01446064610B18369002B45D0304B80
:102020009C4247D02F4B9C424FD02F4B9C4202BF2B
:102030002E4B1B68DC68012001A913F023FEA38945
:1020400003F400731BB2D3B1A368013B002BA36060
:102050001EDB23681D70236813F8015B2360A389CE
:1020600003F400731BB21BB904F1600013F0CEFD42
:10207000019801A913F006FE284602B070BD04F1D4
:10208000600013F089FDA368013B002BA360E0DA38
:10209000A269934212DB23681D70236819780A290C
:1020A00017D001330D462360D9E7FEF7CFFA0C4B6A
:1020B0009C42B7D10D4B1B685C68BCE72946304693
:1020C000224604F011FD0546C9E7084B1B689C68D1
:1020D000B1E73046224604F007FD0546BFE700BFE2
:1020E0000CC80208ECC70208CCC702082CC80208BA
:1020F00030B583B005460C460FF01AFC20B10FF046
:1021000017FC8369002B30D02E4B9C4234D02E4BD1
:102110009C4252D02D4B9C4202BF2D4B1B68DC6869
:10212000012001A913F0AEFDA38903F400731BB2D3
:10213000002B25D0A368013B002BA36029DB23687B
:102140001D70236813F8015B2360A38903F40073F7
:102150001BB21BB904F1600013F058FD019801A9EE
:1021600013F090FD284603B030BD0FF0E1FBFEF701
:102170006DFA144B9C42CAD1154B1B685C68CFE7C3
:1021800004F1600013F008FDA368013B002BA3607D
:10219000D5DAA269934208DB23681D7023681D7895
:1021A0000A2D02D001332360CFE70FF0C1FB29468F
:1021B000224604F099FC0546C7E7054B1B689C685E
:1021C000AEE700BF0CC80208ECC70208CCC7020883
:1021D0002CC8020838B50C4605460FF04BFC2246C9
:1021E00001462846BDE838400FF03CBC10B5044617
:1021F0000FF09EFB2146BDE81040FFF7EBBF00BF8C
:1022000038B50C460968054609B1FFF7F9FF2846BD
:102210002146BDE83840FEF773BC00BF2D4B1B685C
:10222000984270B5054654D0C369EBB1DA68B2B1D3
:1022300000231E4652F8231041B10C682846FEF7D1
:102240005FFC2146002CF8D1EB69DA680136202EBC
:102250003346EFD128461146FEF752FCEB69196868
:1022600011B12846FEF74CFC696911B12846FEF70A
:1022700047FCE96911B12846FEF742FC296B11B110
:102280002846FEF73DFC696B11B12846FEF738FC85
:10229000A96B11B12846FEF733FCE96C11B1284651
:1022A000FEF72EFCA96C11B12846FEF729FCE96A5D
:1022B00011B12846FEF724FCAB6953B12B6A0BB170
:1022C00028469847E96B21B12846BDE87040FFF7E2
:1022D00097BF70BD3C020010838903F00903092BEE
:1022E00001D000207047FEF721B900BF70B50C4641
:1022F000054610B18369002B5BD0504B9C425DD0EA
:102300004F4B9C4200F088804E4B9C4202BF4E4B8C
:102310001B68DC68A38903F4005212B232B9A26FC1
:1023200043F4005322F40052A381A26703F0200279
:10233000002112B261601946002A37D103F004026D
:1023400012B202B3616B61B104F14403994202D04D
:102350002846FEF7D5FB236C002060636360002BEA
:1023600049D12369002B5BD0A689B3072AD1226902
:10237000666A22602846216A6369B0470028606067
:102380000FDD002070BD01F0100212B2002A4CD007
:1023900001F0080109B2002930D143F00403A38100
:1023A000DFE7A3891FD143F02003A3814FF0FF3063
:1023B00070BDFEF74BF9214B9C42A1D1224B1B680B
:1023C0005C68A7E7204B214918680123A381FEF729
:1023D00019FF06F00903092BA681C8D1284621461A
:1023E000FDF7A0FFC3E743F0400300226260A38132
:1023F0004FF0FF3070BDE36B236070BD284621466F
:10240000FEF740F80028D1D1A389A06023F008038B
:102410001B041B0CA061C0E70B4B1B689C6879E791
:1024200028462146FFF7C6F89EE741F04001092300
:102430002B604FF0FF30A18170BD00BF0CC80208B7
:10244000ECC70208CCC702082CC80208D922000831
:1024500038B50C46054608B18369C3B1144B9C429C
:102460001AD0144B9C421BD0134B9C4202BF134BFF
:102470001B68DC6828462146FFF738FFA0B9626870
:102480002368013A626013F8010B236038BDFEF740
:10249000DDF8074B9C42E4D1084B1B685C68E9E718
:1024A000064B1B689C68E5E74FF0FF3038BD00BF66
:1024B0000CC80208ECC70208CCC702082CC80208E6
:1024C00010B504460FF034FA2146BDE81040FFF77E
:1024D000BFBF00BF0EB430B5A2B025AC4FF401723F
:1024E00054F8045BADF814200290069001F0AEFAA7
:1024F000002342F2AD52C0F600020F9314934FF640
:10250000FF730B92ADF816300390079001940FF013
:102510000FFA02A92A46019B02F00EFB22B0BDE889
:10252000304003B0704700BF0CB42DE9F041A2B0B9
:1025300028AC80464FF40173084654F8046B0291AE
:10254000ADF81430069101F081FA0025324642F2CE
:10255000AD560746C0F600060F95149540464FF657
:10256000FF7502A92346039707970B96ADF81650FF
:10257000019402F0E1FA22B0BDE8F04102B07047E8
:1025800010B50C46B1F90E100FF0E6FB002807DB82
:10259000D4E91623121843EBE073C4E9162310BDE7
:1025A000A38923F48053A38110BD00BF002070478E
:1025B000F0B50C46898901F4807C0FFA8CFC83B05D
:1025C000074616461D46BCF1000F08D00223B4F999
:1025D0000E100093002200230FF068FBA18921F464
:1025E0008051A181B4F90E10384632462B4603B013
:1025F000BDE8F0400FF014BC10B582B00C4600935B
:10260000B1F90E10D3170FF051FBA389B1F1FF3FC1
:1026100008BFB0F1FF3F04BF23F48053A38104D06F
:10262000C4E9160143F48053A38102B010BD00BF7A
:10263000B1F90E100FF0BEB9C9B2F0B400294BD0F9
:1026400082070FD00378002B71D0994242D0431CEF
:1026500005E013F8012B002A3BD091423AD09A07AB
:102660001846F6D10368A3F1013222EA030241EAD7
:10267000012712F0803F47EA07471CD17B40A3F1B6
:10268000013222EA030313F0803F14D1021D02E05D
:1026900014F0803F0FD1104652F8043BA3F10136ED
:1026A00087EA030426EA0303A4F1013513F0803F0F
:1026B00025EA0404ECD00378002B38D0994209D0E5
:1026C000431C01E0914205D0184613F8012B002A63
:1026D000F8D11046F0BC704783070BD00378002B6D
:1026E000F8D0431C03E002780133002AF2D09907A6
:1026F0001846F8D10368A3F1013222EA030313F06C
:10270000803F0AD1021D104652F8041BA1F101348A
:1027100024EA010111F0803FF5D00378002BD9D0D5
:10272000431C184601330278002AFAD1D2E7184632
:10273000D0E700BF40EA010C1CF0070F40F02380F7
:10274000BDF1100DCDE90245CDE900676FF000063F
:102750004FF00007F0E80223F1E80245A24282FAB6
:1027600046FCA7FA86FC08BFBCF1000F40F0ED80E4
:10277000AB4283FA46FCA7FA86FC08BFBCF1000F07
:1027800040F0DF80E6E710F0030C00F0278020F037
:10279000030050F8042B5FEACC7C00F00B8080F043
:1027A000128011F801CB5FFA92F3B3EB0C0C40F0FE
:1027B00013808BB111F801CB5FFAA2F3B3EB0C0CD1
:1027C00040F00A8043B111F801CB5FFAB2F3B3EBEA
:1027D0000C0C40F001800BB960467047BDF1100D44
:1027E000CDE90245CDE900676FF000064FF0000724
:1027F00011F0030C40F0318010F0040F00F00E8057
:1028000050F8042B51F8044BA24282FA46FCA7FA76
:1028100086FC08BFBCF1000F40F0978011F0040F58
:102820003FF498AF51F8045BF0E80223AA4282FA21
:1028300046FCA7FA86FC08BFBCF1000F40F07D8083
:10284000F1E80245A34283FA46FCA7FA86FC08BFDA
:10285000BCF1000F40F06D80E6E721F00301BCF110
:10286000020F00F0228080F2408051F8045B00BF2C
:1028700050F8043B4FEA152583FA46FCA7FA86FC7C
:10288000B7EB0C2F03EA162208BFAA4240F055808E
:1028900051F8045BBCF1000F82EA03034FEA0562C2
:1028A00008BF934240F04180E2E751F8045B00BF6B
:1028B00050F8043B4FEA154583FA46FCA7FA86FC1C
:1028C000B7EB0C4F03EA164208BFAA4240F035802E
:1028D00051F8045BBCF1000F82EA03034FEA0542A2
:1028E00008BF934240F02180E2E751F8045B00BF4B
:1028F00050F8043B4FEA156583FA46FCA7FA86FCBC
:10290000B7EB0C6F03EA166208BFAA4240F01580CD
:1029100051F8045BBCF1000F82EA03034FEA052281
:1029200008BF934240F00180E2E719BA12BA00F002
:102930000EB819BA22BA00F00AB811BA2ABA00F0D1
:1029400006B819BA2ABA00F002B811BA22BA9CFA2B
:102950008CF0DDE90067DDE902451DF1100D38B1AD
:10296000B0FA80F0C0F1180021FA00F122FA00F26A
:102970000120914298BF8041704700BFFFF7DABE47
:1029800080EA0102844612F0030F4FD111F0030FC9
:1029900032D14DF8044D11F0040F51F8043B0BD027
:1029A000A3F101329A4312F0803F04BF4CF8043B7C
:1029B00051F8043B16D100BF51F8044BA3F101328A
:1029C0009A4312F0803FA4F101320BD14CF8043B42
:1029D000A24312F0803F04BF51F8043B4CF8044B73
:1029E000EAD023460CF8013B13F0FF0F4FEA3323E4
:1029F000F8D15DF8044B704711F0010F06D011F8C3
:102A0000012B0CF8012B002A08BF704711F0020FB0
:102A1000BFD031F8022B12F0FF0F16BF2CF8022B9B
:102A20008CF8002012F47F4FB3D1704711F8012BBE
:102A30000CF8012B002AF9D1704700BF10B50446ED
:102A40008E2900F2A381DFE811F09F019D019B0117
:102A5000990197019501930191018F018D018B01DE
:102A60000B01090107010501A10103010101FF009B
:102A7000FD00FB00F900F700F500F300F100EF00A6
:102A8000ED00EB00E900E700E500E300E100DF0016
:102A9000DD00DB00A101A101A101A101A101A101B2
:102AA000A101A101D900D700A101A101A101A101AA
:102AB000A101A101A101A101A101A101A101A10106
:102AC000A101D500A101D300D100A101A101A10163
:102AD000CF00A101A101A101CD00A101A101CB0065
:102AE000A101A101C900A101A101A101A101A101AF
:102AF000A101A101A101A101A101C700A101C5007E
:102B0000C300C100A101A101BF00A101A101A10158
:102B1000A101A101A101A101A101A101BD00BB0071
:102B2000B900B700B500A101B300B100AF00AD001E
:102B3000AB00A900A700A500A300A1009F009D0075
:102B40009B00A101A101A10199009700A101A10190
:102B5000A101A101A1019500A101A101A101A10172
:102B6000A101930091008F003E4810BD3E4810BD6A
:102B70003E4810BD3E4810BD3E4810BD3E4810BD09
:102B80003E4810BD3E4810BD3E4810BD3E4810BDF9
:102B90003E4810BD3E4810BD3E4810BD3E4810BDE9
:102BA0003E4810BD3E4810BD3E4810BD3E4810BDD9
:102BB0003E4810BD3E4810BD3E4810BD3E4810BDC9
:102BC0003E4810BD3E4810BD3E4810BD3E4810BDB9
:102BD0003E4810BD3E4810BD3E4810BD3E4810BDA9
:102BE0003E4810BD3E4810BD3E4810BD3E4810BD99
:102BF0003E4810BD3E4810BD3E4810BD3E4810BD89
:102C00003E4810BD3E4810BD3E4810BD3E4810BD78
:102C10003E4810BD3E4810BD3E4810BD3E4810BD68
:102C20003E4810BD3E4810BD3E4810BD3E4810BD58
:102C30003E4810BD3E4810BD3E4810BD3E4810BD48
:102C40003E4810BD3E4810BD3E4810BD3E4810BD38
:102C50003E4810BD3E4810BD3E4810BD3E4810BD28
:102C60003E4810BD88EC020870EC02085CEC0208DB
:102C700064E9020828EC020840EC02089CEA020819
:102C8000C0EC020894E702085CE7020864E8020866
:102C900038E9020854E80208D4EC0208A8E802085F
:102CA00018EA020804EC0208ECEB0208D8EB020870
:102CB000C0EB0208A0EB020880EB020850EB020810
:102CC00034EB02089CEC02081CEB020800EB020843
:102CD000ECEA0208D0EA0208C4EA0208B0EA0208F4
:102CE0008CEA020874EA020860EA020848EA02086C
:102CF00038EA020830EA02080CEA0208F8E9020899
:102D0000DCE90208C8E90208B8E90208ACE90208EF
:102D10009CE9020884E9020874E902084CE9020807
:102D200028E9020818E9020800E90208ECE80208AC
:102D3000CCE8020894E8020884E8020844E80208A3
:102D400034E8020820E8020814E80208FCE7020858
:102D5000F0E70208DCE70208C8E70208B4E7020867
:102D6000114810BD114810BD114810BD114810BDCB
:102D7000114810BD114810BD114810BD114810BDBB
:102D8000114810BD114810BD114810BD084611462C
:102D9000002B14BF1A46224602F082FF0D4B00287A
:102DA00008BF184610BD00BF88E7020878E7020890
:102DB00048E7020834E7020818E702080CE70208AF
:102DC000F4E60208E4E60208C8E60208BCE60208E7
:102DD000B4E60208F4CE020810B504460EF0A8FDD1
:102DE000002221461346BDE81040FFF727BE00BF72
:102DF0004369002B30B40CDBA3F16402940705D1C6
:102E0000642192FBF1F401FB14226AB96FF06302B2
:102E100048E003F26C72910742D1642192FBF1F415
:102E200001FB1422002A3BD001228569C469680095
:102E300000EB0413D318212B18DC202B05DA0D2B03
:102E400028DC0A2B01DA012B0ED84FF0FF3030BC02
:102E5000704741F2D56293421AD00232934217D0A2
:102E600041F2D362934213D00020F0E741F2C662F0
:102E70009342EEDC41F2C262934209DA41F2A2626D
:102E8000934205D0F0DBA3F5B553123B022BEBD8F0
:102E90000120DCE7102BE7DB112BD6DD1C3BD2E752
:102EA00040F26C7248F21F51D218C5F2EB1181FB4F
:102EB0000231D317C3EBE1114FF4C87303FB1122A6
:102EC000D2F1010238BF0022AFE700BF2DE9F04F79
:102ED00095B04BF2C53406940746884616469B4685
:102EE00002F060FDDDF818C005904AF6AB2542F20D
:102EF000934AC9F2A21CC2F6AA250024CDF818C034
:102F0000C9F2492A07953378252B18BF002B7CD1AD
:102F1000002B00F0B7807578302D18BF2B2D14BF13
:102F20000023012379D029461D46A1F13103013642
:102F3000082B88BF4FF0000978D9452900F081801F
:102F40004F297ED0A1F12503552B59D8DFE813F086
:102F5000A200580058005800580058005800580067
:102F600058005800580058005800580058005800A1
:102F70005800580058005800580058005800580091
:102F80005800580058005800AA00C800AC02680257
:102F900058008F020A025802ED02580058005800EB
:102FA0000C0358005800510158008C019B01A701E7
:102FB000B501CB01DB01E901E80018015800580018
:102FC00058005800580058000804290496039E032E
:102FD0009E035800A60329045800E8035802ED0296
:102FE000580365035800510158006E0358007603DA
:102FF0007F0358008B03EC037C00180302F0FCFCF9
:103000000024204615B0BDE8F08F08F1FF3294424D
:10301000F6D23B550136013475E7B178A1F13103A1
:103020000236082B88BF4FF0000986D830460BA91E
:103030000A2201F055FD0B9E3178452981467FF427
:103040007FAF717801367DE7DBF814000028C0F20D
:103050006B8448F21F53C5F2EB13C21783FB00E3E6
:10306000C2EB6313642202FB13033819C4EB08019B
:10307000B74A05F057FD0028C2DB2418A045BFD988
:1030800033782BB9B8F1000FBBD000233B55B8E71C
:10309000013638E708F1FF339C42B1D225233B5576
:1030A0000134EDE7059DDBF8183005EB8303DD6F98
:1030B000284600F0CBFC0028E2D008F1FF318C421A
:1030C0009ED200192346002201E08B4298D2AA5CCE
:1030D000FA5401338342C4EB0302F6D11C46CFE716
:1030E000DBF81030DDF814C00C335CF823502846B0
:1030F00000F0ACFC0028C3D008F1FF318C42BFF4D3
:103100007FAF00192346002202E08B42BFF478AF64
:10311000AA5CFA5401338342C4EB0302F5D1DDE724
:10312000DBF814104FF69402CFF6FF72914201F2D1
:103130006C7380F270832D228DF830205B42B9F1E0
:10314000000F00F0528309F1FF390DF131000CAA94
:1031500025210170002D40F0448301307D49029209
:103160000493FFF70DFC049B029A00933819C4EBFB
:1031700008014B4605F0D6FC0028BFF67EAF3FE7BE
:10318000DBF82030002B83DB02F030FCDBF8203052
:1031900040F22C71002BD4BF00230123C1F20001A7
:1031A00051F8230000F052FC0028D8BF25461CDD52
:1031B00008F1FF318C42BFF421AF0019254602E02F
:1031C0008D42BFF41BAFDBF8203040F22C7C002B8B
:1031D000D4BF00230123C1F2000C2A1B5CF823306A
:1031E0009B5C7B5501358542EAD102F005FC2C46FB
:1031F00046E7DBF80830DDF814C00B2BCCBFA42366
:10320000A02363445D68284600F020FC00283FF4BA
:1032100037AF08F1FF318C42BFF4F2AE00192346FC
:103220000022DFF83CC109E0FA5401338342C4EBC9
:1032300003023FF453AF8B42BFF4E2AE96F8009026
:10324000B9F1500F18BFAA5CEED115F80290DCF866
:1032500000204A44527802F00302012A08BF09F113
:1032600020095FFA89F2DFE7DBF80410DBF80830A9
:10327000394A00913819C4EB080105F053FC0028C5
:10328000BFF6FBAEBCE63819C4EB0801304ADBF8E8
:10329000003005F047FC0028BFF6EFAEB0E69BE833
:1032A0000E003819009201912C4AC4EB080105F078
:1032B00039FC0028BFF6E1AEA2E6DBF81C10DBF813
:1032C0001830234A0731C91A8AFB01E5CB176D185C
:1032D0003819C4EB0801C3EBA50305F023FC002853
:1032E000BFF6CBAE8CE65846FFF782FDDBF8183010
:1032F000002B00F07E82013B0028DBF81C2040F30D
:10330000C5820123B1E6DBF81830002B00F0738290
:10331000013BDBF81C000E4A0730C11A8AFB01C5CD
:10332000D4E7DDF814C0DCF89850284600F08EFB96
:103330002B78002B3FF4A4AE3819C4EB08012A46C1
:103340005B46FFF7C3FD00287FF75AAE241897E6C7
:1033500004ED02082CED020838ED020844ED0208E5
:1033600038020010DBF814304FF69401CFF6FF71ED
:103370008B42ACBF00210121584603910493FFF713
:1033800037FD049B0399002B02460891C0F29B82F3
:1033900048F21F50C5F2EB1080FB03ECD817C0EBCE
:1033A0006C1C09900CF1130C48F21F5EC5F2EB1E69
:1033B0008EFB030E0998C0EB6E1E642000FB1E3EC0
:1033C000002AC0F25782002AD4BF002101F0010177
:1033D000002918BF4FF0FF327244531C00F03C82AA
:1033E000642A04BF0CF1010C00220899642303FB3A
:1033F0000C23002900F001822D228DF830209EE65A
:10340000CD4ACE48DBF808306B2918BF0246381980
:10341000C4EB080105F086FB0028BFF62EAEEFE5F1
:10342000DBF81030DBF81420DBF80C900133002AB5
:1034300007EB0405C4EB0801C0F2988248F21F5064
:10344000C5F2EB104FEAE27E80FB02C0CEEB6010CB
:103450004FF0640E0EFB10200190CDF8009028462E
:10346000B74A05F05FFB0028BFF607AEC8E5252385
:103470008DF83030002D00F0DF81B9F1050F8DF8A7
:10348000315000F2D8820DF132052846AD49FFF7E0
:1034900077FA3819C4EB08010CAA5B46FFF716FD52
:1034A00000283FF753AFABE5DBF814004FF694016B
:1034B000CFF6FF718842ACBF002101210028C0F285
:1034C000458248F21F53C5F2EB1383FB00E3C0179C
:1034D000C0EB63101330002D00F0AB816328D4BF24
:1034E0004FF0000E4FF0010E974B984A2B2D984D40
:1034F00018BF4FF0000EBEF1000F18BF1D46B9F106
:10350000010F98BF4FF00209924B0190C1EB0900E7
:10351000002908BF2B460090C4EB0801381905F0BC
:1035200001FB0028BFF6A9AD6AE5DBF808200C23F3
:103530000C2A18BF002A09D0079DD31785FB02501B
:10354000C3EB600303EB4303A2EB83037B4A7A4D97
:103550003819492918BF2A46C4EB080105F0E2FAD8
:103560000028BFF68AAD4BE53819C4EB0801734A51
:10357000DBF8043005F0D6FA0028BFF67EAD3FE553
:10358000DBF82030002BFFF683AD04F0FBF9054695
:1035900002F02CFADBF82030002BCCBF1C230023D8
:1035A000ED1848F689092D6AC8F688096D4202F0BF
:1035B00023FA89FB0520EB174019C3EB6010049335
:1035C00004F0F4F9024689FB00C08018D117DDF839
:1035D00018E0049BC1EB60118EFB05ECC1EB011EF2
:1035E000A2EB8E02654400923819C4EB08015A4AD6
:1035F000C3EBE52305F096FA0028BFF63EADFFE4E5
:10360000DBF810304D4A01333819C4EB080105F0DE
:1036100089FA0028BFF631ADF2E408F1FF339C428D
:10362000BFF4EEAC0A233B55013429E5DDF814C0A4
:10363000DCF8E450284600F009FA79E608F1FF3397
:103640009C42BFF4DDAC09233B55013418E508F179
:10365000FF339C42BFF4D4ACDBF8183053B93723A6
:103660003B5501340CE508F1FF339C42BFF4C8AC74
:10367000DBF8183030333B55013401E5DDF814C078
:10368000DCF8A050284600F0E1F951E62B4A2A4820
:10369000DBF80C30642918BF0246B8E65846FFF73D
:1036A000A7FB0546DBF814000028C0F2FB8048F2B7
:1036B0001F53C5F2EB13C21783FB0013C2EB631356
:1036C000642202FB1303002DC0F2CA8009D04FF61A
:1036D0009402DBF81410CFF6FF729142B8BF4FF09E
:1036E000FF3548F21F52ED18C5F2EB1282FB053090
:1036F000E9176423C1EB601103FB1155ED18E917BD
:1037000082FB05C2C1EB621E3819C4EB08010B4AEB
:1037100003FB1E5305F006FA0028BFF6AEAC6FE4BB
:10372000DBF81C300D4A6EE7DDF814C0DCF89C5065
:10373000284600F08BF9FBE50CED020804ED0208C9
:1037400010ED020824ED0208FCEC0208F4EC02087B
:10375000F4CE020800ED020854ED020830ED020834
:10376000DBF81830DDF814C018335CF82350284615
:1037700000F06CF900283FF483AC08F1FF318C4273
:10378000BFF43EAC00192346002202E08B42BFF496
:1037900037ACAA5CFA5401338342C4EB0302F5D17F
:1037A0009CE4DBF81030DDF814C05CF823502846A8
:1037B00000F04CF900283FF463AC08F1FF318C4273
:1037C000BFF41EAC00192346002202E08B42BFF476
:1037D00017ACAA5CFA5401338342C4EB0302F5D15F
:1037E0007CE4302141700230B8E40DF131000CAAC4
:1037F000AEE4062380E506238BE542F20F72934286
:1038000094BF002201222B2D18BF002272B12B225F
:103810008DF8302093E4B5F12B00424242F20F7153
:1038200042418B4298BF0022002AF0D10CAA1046D8
:103830008EE4834D834A62E62B238DF831300423D6
:103840000DF132051E2128467F4A05F06BF900284C
:103850007FF71BAE281819E60CF1FF3C6322C4E584
:103860004FF69502DBF81410CFF6FF729142B8BF05
:10387000012536E74FF69500DBF81430CFF6FF70E0
:103880008342BFF6A0AD01220892A5E540F08680F4
:103890000A32D31A8AFB0302D218DB17C3EBA20346
:1038A000FFF7E3BB00F26C7003F02EFA48F21F53EF
:1038B000C5F2EB1383FB0023C217C2EB6313642230
:1038C00002FB1303FFE603F26C7048F21F530993E7
:1038D0000391029203F018FADDF824C0DBF81430EB
:1038E0000399029AC5F2EB1CCDF824C08CFB00CEE4
:1038F000C017002BC0EB6E1C80F2988003F26C7036
:1039000003910292CDF810C003F0FEF9099BDDF897
:1039100010C0029A039983FB003EC317C3EB6E1ECF
:10392000642303FB1E0E4BE500F26C7003F0ECF910
:1039300048F21F53C5F2EB13C21783FB0013C2EB0F
:103940006313642202FB1303FFF78FBB00F26C705A
:10395000039103F0D9F948F21F53C5F2EB1383FB2F
:103960000023C017C0EB63100399B4E502F26C703A
:103970000391049303F0C8F9024648F21F50C5F2C0
:10398000EB1080FB02E04FEAE27ECEEB60104FF0DE
:10399000640E0EFB1020049B03995DE5DBF8140018
:1039A0000028C2EB03032BDBA0F165018D070CD1CE
:1039B00048F21F55C5F2EB1585FB0125CA17C2EB6E
:1039C0006512642505FB121171BB6FF0640148F2AA
:1039D0001F520918C5F2EB12C81782FB0152C0EB47
:1039E000E2124FF4C87000FB1211D1F1010138BF8F
:1039F00000215B1A042BCCBF34233523FFF735BBE2
:103A000000F26B718A070CD148F21F52C5F2EB121B
:103A1000CD1782FB01E2C5EB6212642505FB121192
:103A200011B940F26B71D2E70121E2E74FEAE37E80
:103A3000CDF824E0B8E4B9F106033FF424ADFFE685
:103A4000F4CE0208ECEC020820ED020820F003019D
:103A500010F00300C0F1000051F8043B00F1040C29
:103A60004FEACC0C6FF000021CBF22FA0CF2134399
:103A70004FF0010C4CEA0C2C4CEA0C4CA3EB0C0262
:103A800022EA030212EACC1204BF51F8043B0430CC
:103A9000F4D013F0FF0F1FBF013013F47F4F01303C
:103AA00013F47F0F18BF0130704700BF0000000003
:103AB0002DE9F04F2DED028B9FED797B9DB08DEDC3
:103AC000047B0E920D46814617910A46114612F864
:103AD000013B2D2B66D8DFE803F04D656565656514
:103AE0006565654B4B4B4B4B656565656565656508
:103AF000656565656565656565654B656565656590
:103B00006565656565486517012210924E1C17961C
:103B10004B7898469A4683B3302B48D000210691C3
:103B20002F2B9A464FF0000C56DD392B54DC721CBB
:103B3000674664460EE007EB870703EB4707303F15
:103B40001792904612F8013B01342F2B9A4646DD1E
:103B5000392B44DC0F2CF3DC082CECDD0CEB8C0C4B
:103B600003EB4C0CACF1300CEAE700231093CDE7EB
:103B70001792ABE74FF00008C2460020179510904F
:103B80000E9B13B1179B0E980360109909B10AF1AF
:103B9000004A4246534643EC102B1DB0BDEC028B4D
:103BA000BDE8F08F0020302B0E461090B6D1737810
:103BB000582B00F06D84721C782B00F06984164637
:103BC000179612F8013B302BF9D098469A46002BF5
:103BD000D6D001200690A3E7B04667466446484623
:103BE000CDF80CC0FDF7CEFCD0F800B04846FDF78C
:103BF000C9FC0068FFF72AFF59460246404605F017
:103C000033F8DDF80CC08046002800F01581002054
:103C1000A346804601462AF02003452B40F0B180A0
:103C2000069A4BEA00031A4300F0F080179D6B1CC4
:103C3000179395F801A0BAF12B0F00F09684BAF112
:103C40002D0F00F01D8300220792AAF13003092BEB
:103C500000F21784BAF1300F07D1179B0133179385
:103C600013F801ABBAF1300FF9D0AAF13103082BE8
:103C700000F28780179A531CAAF1300A1793CDF8E7
:103C80002CA092F801A00A92BAF12F0F20DDBAF110
:103C9000390F1DDC931C08910B9A08E0AFF30080EC
:103CA0000000000000000000BAF1390F0DDC17938E
:103CB00002EB82020AEB420293F800A0303ABAF11A
:103CC0002F0F194603F10103EEDC0B4608990B9206
:103CD0000A9A9B1A082B44F61F6303DC0B9A9A423C
:103CE000B8BF1346079A02B15B42BBF1000F4CD03C
:103CF000C8EB0308002C08BF5C463846CDF8188096
:103D00000794CDF80CC009F0ADFABBF1100FB4BFA9
:103D1000DA464FF0100A02460B46BAF1090FCDE918
:103D2000042315DD904B03EBCA0353E9122309F07A
:103D30000FFBDDF80CC0044660460D4609F092FA10
:103D400002460B462046294609F050F9CDE9040108
:103D5000BBF10F0F00F3CE80069B002B67D040F322
:103D600058850698162800F30D857F4B03EBC00B92
:103D7000DBE90001DDE9042309F0EAFA80468A461E
:103D8000FEE60023BBF1000FB2D1069B03434ED1E8
:103D900000293BD1AAF1490ABAF1250F36D8DFE84C
:103DA0001AF0760235003500350035002600350062
:103DB000350035003500350035003500350035005B
:103DC000350035003500350035003500350035004B
:103DD000350035003500350035003500350035003B
:103DE00035007602350035003500350026005F4885
:103DF000179A10F8011F134669B15B780132402B06
:103E000002DD5A2BD8BF20338B42F2D0DDF8108070
:103E1000DDF814A0B1E6531C17935378282B00F05B
:103E2000668500210A46CFF6F87205920491DDF806
:103E30001080DDF814A0A3E64846DDF85CA0FDF78D
:103E4000A1FB0068FFF702FE0AEB000317931AF8C4
:103E500000A0DDF80CC0002C40F0B381BAF1300FA7
:103E6000204607D10133179393F800A00130BAF12F
:103E7000300FF7D0AAF13103082B00F2AE81179E64
:103E8000804607964FF0000B0120AAF1300159B38C
:103E90000128804400F023850BEB000A0AF1FF3A69
:103EA0005B4601335A1E102A08DC092BCBBF0CEBF2
:103EB0008C0C07EB87074FEA4C0C7F005345F0D181
:103EC0000BEB0003013B0020102B03F1010B0BDC7B
:103ED000BBF1090FD5BF07EB87070CEB8C0C01EB8F
:103EE000470701EB4C0C0020079A531C179392F8DC
:103EF00001A068E10699CAEB0B0A01EB0A04002C49
:103F000040F3D28314F00F030AD0174A02EBC30325
:103F1000D3E90001DDE9042309F01AFACDE904012F
:103F200034F00F0440F05E81DDF81080DDF814A05D
:103F30000A945B46009748463146079A03F04CFFC7
:103F4000069B0F90002BC0F25F8400200B90069B15
:103F50000F9ACDF818800C3223EAE37311920C9378
:103F6000CDF81CA079E000BFD0C902086BED0208B3
:103F70000D9B002B00F09D814FF000080025DDF81F
:103F800014C008960024C3F6F075C3F6F078002636
:103F90000023C7F6F0760CEA0606C7F6E0739E42E9
:103FA00000F0BE810A9AB6F1D46F8CBF00230123C2
:103FB000002A08BF0023F3B1089841460FF280534E
:103FC000D3E9002309F040FC90B10898414609F07C
:103FD00081FC002800F0488209F044F908908846E6
:103FE0000D9B002B40F03E8208F10043089C1D46CB
:103FF00005F1D6639D1B069A079B43EC102B04F03A
:1040000069F9204653EC102B294609F0A1F9069CCA
:10401000079D02460B462046294608F0E7FFCDE9FA
:104020000401059C069007910A9931B90023C7F64F
:10403000F07323409E4200F0B2814846189903F085
:1040400069FE4846514603F065FE4846594603F06E
:1040500061FE4846394603F05DFE0F9841684846C8
:1040600003F024FE0F990B6911999A1C9200824665
:1040700000F10C00FDF790FE079B069A16A943EC91
:10408000102B484619AA04F0B1F9012118904846AE
:1040900003F03CFF169A002AB6BF0C990B9B0B9CB1
:1040A0008346B8BFC2EB01000A99A4BF0C989C18C4
:1040B000199B521AD5186FF47F718D42B4BF02F26A
:1040C0003343C3F136030A9AE618C3189D18A64273
:1040D000B4BF33462346AB42A8BF2B46002BC2BF1A
:1040E000C3EB0606C3EB0505C3EB04040B9B83B1CE
:1040F0001A465946484603F0B5FF83465946189A72
:10410000484603F00DFF18990746484603F002FEA3
:104110001897002E05DD48461899324603F0F4FF43
:1041200018900C9828B1514648460C9A03F09AFF13
:104130008246002D05DD514648462A4603F0E4FF3D
:104140008246002C05DD59464846224603F0DCFF36
:10415000834618995246484604F04EF8C168002636
:104160000D91C6605946074604F028F8B042C0F2E7
:10417000FF8100F051823846594604F091F955EC20
:10418000104B10EE100A294600224FF0804309F030
:104190005BFB00287FF4ECAE0023C3F6E0732046FF
:1041A0002946002209F0D4F80D9B08908846002B80
:1041B00040F0A98001F10043089CDDF814C01D46C1
:1041C000E5E64046A346AAF13001092903D8179B2A
:1041D000013007935BE601211DE54FF0000BD84647
:1041E000012118E5B4F59A7F00F351822411012CC6
:1041F000DFF8548340F37983DDE90401C2460025EA
:1042000014F0010F05F101054FEA640403D0DAE967
:10421000002309F09DF8012C0AF1080AF0DC02469F
:104220000B46CDE90423059BA3F15473059308EBDA
:10423000C505DDE90423D5E9000109F089F8CDE9D8
:104240000401002305990022C7F6F0730B40C7F65E
:10425000A042934200F21B820022C7F69042934292
:1042600040F2EB824FF6FF700146C7F6EF714FF058
:10427000FF3200230591049290468A460A9358E63D
:1042800001230793AB1C179395F802A0DDE4AA481D
:10429000179A10F8011F1346002900F0F5825B7889
:1042A0000132402B02DD5A2BD8BF20338B42F0D095
:1042B000ACE5049BDDF814C0002B40F0AF80CCF3DC
:1042C000130313BB0023204629460022C3F6F073D4
:1042D000CDF80CC009F0AEFADDF80CC0002840F0B3
:1042E0003C8200230022C3F6E0732046294609F0F1
:1042F0002FF8DDF80CC008908846024601F1004313
:1043000014461D4643E60B4656E74FF000080025CD
:10431000CDF820800024CBF6F075C3F6F07836E6B1
:10432000ACF1547CCDF814C09DED048B069A079B2C
:10433000B0EE480AF0EE680A10461946CDE91201BF
:1043400003F0C8FF204653EC102B294609F000F873
:1043500002460B4651EC180B08F048FECDE904016B
:104360000023059CC7F6F0734FF6FF722340C7F693
:104370009F4293427ED94FF6FF731399C7F6EF73AE
:10438000994200F071814FF6FF731846C7F6EF703F
:104390004FF0FF3105900491069107904DE6089883
:1043A000414609F06FFA08F06DFF089ACDE9140153
:1043B00010464146DDE9142308F016FE0D9ACDE9BA
:1043C0000801002A3AD1049B002B37D1C4F313040F
:1043D000002C33D152A3D3E9002309F02BFA002893
:1043E0003FF42BAE5546DDF81880DDF81CA03C46A6
:1043F0004846189903F08EFC4846294603F08AFC8B
:104400004846594603F086FC48460F9903F082FC63
:104410004846214603F07EFCFFF7B2BB012B7FF438
:1044200074AF614600297FF470AF55463C464FF0AB
:1044300000082223C9F80030C246D9E7DDE90801A7
:1044400039A3D3E9002309F0F5F90028CAD1DDE941
:10445000080137A3D3E9002309F00AFA00283FF442
:10446000ECADBFE74346C1E54FF000080890C3F646
:10447000F078B5E5049904F1547405940691079415
:10448000D2E517950023BBF1000F7FF431AC7CE43B
:1044900010992A4A019118AB0093484617A919AB05
:1044A00002F0FAFE10F0070508BFA846044608BF50
:1044B000C2463FF465AB062D00F05D81189A3AB113
:1044C00035211AA804F03CF84846189903F022FC5C
:1044D000199B062D0BD8DFE805F044391C1504396B
:1044E00044006FF000404FF0FF3105900491220727
:1044F0007FF59DAC059ADDF8108042F000439A46A6
:10450000FFF73EBB00210A46C7F6F0720592049100
:10451000EDE71A991B9A04910592E8E7AFF3008042
:104520009535A094FFFFCF3F9535A094FFFFDF3F67
:1045300035E5AF350000E03F5FED020830C8020806
:104540000000C0FFFFFFDF41C0CA02081B9A1A9893
:1045500003F2334322F4801242EA0352049005929C
:10456000C5E7002305930493C1E70023079389E679
:104570000D9A55463C467ABB049B6BBB059AC2F329
:1045800013034BBB3346C7F6F0731340B3F1D66F3A
:1045900022D97B6913B93B69012B1DDD214601221C
:1045A000484603F0B1FD5946044603F007FE0028D3
:1045B00012DD0A9A002A40F08481059820F0004319
:1045C0001B0D1B05A3F580136FEA13536FEA03530A
:1045D0004FF0FF32059304920A98002800F0C6803D
:1045E00000210A46C3F6501212911392DDE904012C
:1045F000DDE9122308F0ACFECDE904018A460599F5
:10460000804600297FF4F4AE049A002A7FF4F0AECD
:104610002223C9F80030EBE60D98DDF818805546E6
:104620003C46DDF81CA0002800F0CA80059B4FF630
:10463000FF7223F07F4121F47001C0F20F0291421A
:10464000049900F00481CB07C6D54246534643EC9B
:10465000102B03F03FFE4046514653EC102B08F060
:10466000C5FCCDE90401B7E7129A01327FF48BAEA5
:1046700000221346C7F6F0730593222355463C46A5
:104680000492C9F800309046DDF814A0B0E600218D
:104690000A46C7F6F072222305920491C9F8003049
:1046A00088469246FFF76CBA3FF43EAC644214F081
:1046B0000F030AD09F4A02EBC303DDE90401D3E9EB
:1046C000002308F06FFFCDE9040124113FF42CAC66
:1046D0001F2C3ADC14F0100F14BF6A220022002CA9
:1046E0000A920FDDDDE90401934DE30703D5D5E917
:1046F000002308F02DFE08356410F6D102460B4663
:10470000CDE904230A9B8BB1059AC2F30A53C3F186
:104710006B03002B0ADD1F2B40F3FB800020342BA2
:10472000049040F3FE804FF05C710591049B059A64
:10473000DDF81080DDF814A0184611460023002291
:1047400009F06EF800283FF4F4AB4FF00008222384
:10475000C9F80030C246FFF713BA00230D9A9846F5
:104760000892CBF6E073C3F6E078C9E5DDF8108077
:10477000DDF814A03CE601364FF000081796C2465B
:10478000FFF7FEB90699CBF1250399423FF7B2AB8B
:10479000684CCBF10F0804EBC801DDE90423D1E933
:1047A000000108F0D5FD069AC8EB020804EBC80426
:1047B000D4E9002308F0CCFD80468A46FFF7E0B933
:1047C0000598C0F31303002B35D1049B002B3FF455
:1047D000F0AEDA077FF500AF4246534643EC102BAC
:1047E00003F078FD404653EC102B514608F0FCFBDB
:1047F00002460B46CDE904230022002309F010F8FD
:1048000000287FF414AEE7E6069949420B91FFF7C2
:104810009EBB069B1633FFF66DAB464B0698A3EB8B
:10482000C00BDBE90023DDE9040108F0BBFE804694
:104830008A46FFF7A5B9049BCBE701F154710591B6
:104840008A460021DDF810800A91FFF772BB0A9AB0
:10485000A2B30022C7F6F0721A40B2F1D46F2DD87D
:10486000120DC2F16B024FF0FF3000FA02F29142DA
:104870007FF4E9AE0022C7F6F0721A4002F580120A
:10488000002305920493A7E62C4C1792114614F8C6
:10489000010F0B4630B35B780131402B02DD5A2B00
:1048A000D8BF20338342F2D00132179200210A464A
:1048B000C7F6F07205920491FFF7B9BA4FF0FF32D4
:1048C000D5E7059921F000431B0D1B05B3F1D66F09
:1048D0003FF678AEB3F15C7F3FF682AEA7E55B466C
:1048E000FFF7F1BA01311791E0E700259BE417A823
:1048F00013491AAA02F064FF05287FF492AA1B9BB1
:104900001A9843F0FF4343F4E00305930490FFF744
:104910008EBA4FF0FF3202FA03F3049A1A4004925F
:1049200004E7203B4FF0FF3101FA03F313400593F6
:10493000FCE600BFD0C9020858C8020863ED0208AF
:1049400044C8020838B50C4605460CF0F1FF29466C
:104950002246BDE83840FFF7ABB800BF38B50C467B
:104960002DED028B05460CF0E3FF29462246FFF7AA
:104970009FF8B0EE408AF0EE608A04F077F840B11C
:1049800051EC180B08F0C6FF00EE100ABDEC028BCC
:1049900038BDBDEC028BBDE8384004F061B800BF03
:1049A0002DE9F00F4D4C82B0D4F800C0019099462B
:1049B0000B461C4614F8015B0CEB050023464078BF
:1049C00000F00800C0B20028F3D12D2D6ED02B2DA1
:1049D00003BF2446009014F8015B009039F01003E7
:1049E00017D1D9F1010338BF0023302D0AD083B18C
:1049F00049F699184FF00A094FF0050AC1F69918BF
:104A0000CB460FE0207800F0DF00582853D0002B71
:104A10005BD14FF0FF38B8FBF9F809FB08FACB4639
:104A20006FEA0A0A0027384616E0303DA94525DD21
:104A3000404594BF0023012353EAD77729D1554538
:104A4000D4BF00230123404518BF00230BBB0BFB41
:104A50000050012714F8015B0CEB05035B7803F0B1
:104A60000406F6B2002EE0D113F0030306D0012BAA
:104A700014BF57233723ED1AA945D9DC7B1C0BD073
:104A8000009B8BB90AB16FB9116002B0BDE8F00F9D
:104A900070474FF0FF37DDE7019922230B6038465E
:104AA000002AF2D0611EEFE74042EBE7012314F841
:104AB000015B009392E74FF0100965784FF00F0A01
:104AC00002346FF07048CB46ACE74FF008094FF066
:104AD000070A6FF06048CB46A4E700BF3802001019
:104AE00070B50D46144606460CF022FF31462A46A4
:104AF0002346BDE87040FFF753BF00BF10B4CAB1F2
:104B00000C4614F8013B03708BB18A18002303E0B4
:104B100014F8011BC15451B1013394422146F7D11D
:104B20000A7822B111F8012F0133002AFAD1184670
:104B300010BC70471346F3E72DE9F04F2DED028BC3
:104B40000C468989ADF52F7D064601F4005000B270
:104B5000059330B9A36F41F4005123F40053A181B0
:104B6000A3671746002517F8011B06950A95AB4663
:104B70000995DFF8C893119151B3D9F8003058184E
:104B8000407800F00800C0B2002828D0636810E028
:104B90002368D9F80020197852180133527802F0AE
:104BA0000802D2B26AB162682360531E0BF1010B96
:104BB0006360002BECDC3046214605F08DF90028BF
:104BC000E6D03A46174617F8011B11910029D4D1B7
:104BD00009980DF52F7DBDEC028BBDE8F08F2529DE
:104BE00012D06368002B40F39180236817F8012CE2
:104BF00019789142ECD162680133013A6260236016
:104C00000BF1010B3A46DDE7527882460546791CE6
:104C1000782A00F28F80DFE812F089008D008D0085
:104C20008D008D008D008D008D008D008D008D001C
:104C30008D008D008D008D008D008D008D008D000C
:104C40008D008D008D008D008D008D008D008D00FC
:104C50008D008D008D008D008D008D008D008D00EC
:104C60008D008D00CD038D008D008D008D00D00353
:104C70008D008D008D008D008D00D503D503D503EB
:104C8000D503D503D503D503D503D503D5038D00AF
:104C90008D008D008D008D008D008D008D008D00AC
:104CA0008D00DE03E2038D00E2038D008D008D0098
:104CB0008D00F0038D008D00F5038D008D008D00BB
:104CC0008D008D008D008D008D00FE038D008D0008
:104CD00007048D008D008D008D008D008D008D00EE
:104CE00010041504E203E203E20317041D048D001F
:104CF0008D0024048D003204430445048D008D0092
:104D00004E048D0051048D008D00FE033046214677
:104D100005F0E2F800283FF468AF099D35B1A3899A
:104D200003F040031BB2002B3FF452AF4FF0FF35AE
:104D300009954DE79B1807915B7803F00303012B5E
:104D400008BF4AF0010A7C480A2106900A9103270D
:104D50006368002B40F349831AF0400F0FD0013FE6
:104D6000032F00F2C880DFE817F0600191002000F7
:104D7000EB003046214605F0AFF80028CDD1D9F838
:104D80000010236800E023601A788A1801335278F3
:104D900002F00802D2B2002AE1D06268013A002A89
:104DA00062600BF1010BEEDCE3E76B1EB3F5AE7F47
:104DB00084BF6FF4AE716B184FF000088CBF40F2E7
:104DC0005D1500230DF5AC7CCDF820B0C3469846A8
:104DD00033460A9ECDF82CC04AF4586A67462068CC
:104DE0000178A1F12B024D2A00F25781DFE812F081
:104DF00043015501430155015501820179017901B2
:104E0000790179017901790179019F019F015501AA
:104E10005501550155015501550155019A019A0158
:104E20009A019A019A019A015501550155015501BE
:104E300055015501550155015501550155015501C2
:104E400055015501550155015501A801550155015F
:104E50005501550155015501550155019A019A0118
:104E60009A019A019A019A0155015501550155017E
:104E70005501550155015501550155015501550182
:104E800055015501550155015501A801002D08BFD7
:104E90004FF0FF351AF0010740F017831AF0100F9A
:104EA00040F06081DDF814C02268DCF800A00CF14D
:104EB00004030AF10107554498461378D9F8001005
:104EC000C9187B1E497801F00801C9B2002940F0D9
:104ED0008A836368013B636012F8011BAF4207F8E5
:104EE000011C3B46226000F07E836168002940F38C
:104EF00051810137E1E7002D08BF01251AF00107B4
:104F000040F09E831AF0100F00F0FC836368226863
:104F1000AB423046214680F27784D2182260FF18D7
:104F2000ED1A04F0D9FF0028F0D0002F3FF4F5AEC1
:104F3000BB44079F3A4645E6E18E00083802001060
:104F40006B1EB3F5AE7F40F239836FF4AE72AD18CD
:104F50000D9540F25D150DF5AC7CCDF82CC0002709
:104F60004AF4F06C3346DDF82CA00C97B8460F9746
:104F700008970E973A466646029320680178A1F199
:104F80002B034E2B00F22681DFE813F0D901240118
:104F9000D901D1012401DF0110011001100110011C
:104FA000100110011001100110012401240124013D
:104FB00024012401240124010A02240124012401E2
:104FC000EE01CC0124012401BC01240124012401AF
:104FD0002401A80124012401240124012401A301A6
:104FE00024012401240124010F02240124012401AD
:104FF00024012401240124010A02240124012401A2
:10500000EE01CC0124012401BC012401240124016E
:105010002401A80124012401240124012401A30165
:1050200024012401240124010F02002D08BF4FF0A8
:10503000FF351AF0100F00F08C82236800270DF165
:1050400058081A7818F802200133002A00F07683F5
:10505000626823600137013ABD4262603FF468AF85
:10506000002AEEDC3046214604F036FF00287FF4AB
:105070005FAF2368E5E71AF0800F0ED02AF0800AB0
:1050800007F8011B6268013A002A626040F3578208
:1050900001302060013D7FF4A2AE1AF4807F0A96B1
:1050A000D8461E46DDF820B00ED00B9DAF4206D983
:1050B00017F8011C1846224604F0CEFE013FDDF829
:1050C0002CC067453FF484AD1AF0100500F09C82B7
:1050D000DDF82CC0CCEB0707B844079FC3443A4621
:1050E00070E54CF68002C0F602022AF4386A32F902
:1050F0001660C5E71AF4006FC2D016B94AF4007AF8
:1051000008261AF4806F18BF2AF4B06AB8D12AF4BE
:10511000607AB8F1000F02D008F1FF3801350BF1C9
:10512000010BAFE70A2EB8DD2AF4386AA8E74CF67F
:10513000800CC0F6020C3CF91660082EF4DCACE7DB
:105140000AF4C062B2F5007FA7D12AF4007A4AF4CB
:10515000A06A102694E73046214604F0BDFE0028E0
:105160007FF4E6AED9F8001023681A788A18013364
:10517000527802F00802D2B2002A7FF4D9AE6268F7
:1051800023600137013ABD4262603FF4D1AE002A8C
:10519000EBDCE0E730462146049704F09DFE049BDB
:1051A000002840F020822268013786E6D3198BB9A7
:1051B00026F4C0760AF8011B6368013B013D002B11
:1051C00063600BF1010B40F3AD8101302060002DD5
:1051D0007FF4D3AECDF82080029B089DB446904664
:1051E0001E460DB12CF4807C08F1FF38B8F1010F98
:1051F00040F2C0837B1E062B1FD8022F40F2A983EA
:10520000032F1AD0043FFFB23B460AF1FF35ED1BD6
:10521000CDF834C05746984617F8011D304622464F
:1052200004F01AFEAF42F7D14746FB430BF1FF3BB8
:10523000DDF834C09A44C8EB0B0B1CF4807F17D008
:105240001CF4806F40F06B831AF8011C01F0DF033F
:10525000452B0BF1FF3B08BF0AF1FF3A40F0C58236
:1052600030462246CDF80CC004F0F6FDDDF80CC047
:105270001CF0100240F052810CF4C063B3F5806F53
:105280008AF8002000F0A1820F9D002D40F080825E
:10529000002230460B99CDF80CC0FEF709FCDDF872
:1052A0000CC0B0EE408AF0EE608A1CF0010F00F0F6
:1052B0003A82DDF814C0DCF800300CF1040CCDF8B3
:1052C00014C083ED000B099D079F013509953A46EF
:1052D00078E4062F7FF47EAF07276BE7B8F1000F65
:1052E00008BF002A40F07A8106F4E063B3F5E06F6E
:1052F00000F02982012F18BF042F7FF46BAF013714
:10530000FFB257E7B8F1000F08BF002F05D106F430
:10531000E063B3F5E06F00F06282032F18BF052F42
:10532000EDD057E7022F7FF455AF032742E7B305CF
:105330007FF550AF26F42076CDF838803AE7330673
:105340007FF548AF26F0800634E7F3057FF52EAFF2
:105350000D9B26F0800608F10108002B3FF42CAFCE
:10536000013B0D93013527E706F4A063B3F5806F89
:1053700006D073057FF52EAFB8F1000F00F0E28282
:10538000B3055EBF0E9BCDF830A0C3EB080326F437
:10539000F06658BF0F9346F4C0764FF0000809E757
:1053A000012A7FF417AF022204E7072F7FF412AF20
:1053B0000827FFE607910F4613E47A784AF0100AAF
:1053C0000F4624E405EB850502EB4502A2F130050A
:1053D0007A780F461BE407914AF0010AB3E4636848
:1053E00007910427002B3FF7B7AC3046214604F065
:1053F00073FD00283FF4B0AC8FE47A784AF0020ADB
:105400000F4604E407914AF0010A8B4A08230692EA
:105410000A9303279CE4884A079110234AF4007AF0
:1054200006920A93032793E416A8079103F0DAFA89
:105430004AF0400A079001278AE407914AF0400A9F
:10544000002785E407917EE47A784AF0040A0F4643
:10545000FFF7DDBB794A0791002306920A930327E1
:1054600076E47A786C2A1CBF4AF0010A0F467FF472
:10547000CEABBA784AF0020A0237FFF7C8BB1AF07F
:10548000100F07914AD11AF0040F00F06281059DB8
:105490002B6804350F46A3F800B00595FFF791BBC4
:1054A0000791B2E76448079110214AF4087A069000
:1054B0000A9103274CE40791022749E45E480791CB
:1054C0000A2106900A91032742E40021082214A829
:1054D000FCF752FD1AF0100A01BFDDF814C0DCF829
:1054E00000800CF1040CCDF814C018BF0DF1440875
:1054F00000272268D9F8003012789B185B7803F0F7
:105500000803DBB213B9002D40F08581BAF1000F1A
:1055100004D1C8F800A0099D01350995079F3A46B6
:10552000FFF750BB02980492214604F0D5FC049A80
:1055300000287FF44FAE002D7FF41FAD4AE61846D9
:105540002146049304F0C8FC049B00283FF4A2AD5C
:10555000A3E5DDF814C02168DCF800A00AEB050320
:105560000CF104020AF10107D4460DF15808B246C5
:105570001E46087818F800007D1E10B36568013DCE
:10558000656011F8010BB74207F8010C3D46216038
:1055900017D06068002801DD0137EAE75046214650
:1055A0000492CDF80CC004F097FC049ADDF80CC00E
:1055B000002840F0908121680137DAE700220D923F
:1055C000C9E45646E246B5EB0A073FF401AB0020BA
:1055D0002870099D059201350995A9E4022A7FF4F6
:1055E00089AE0322E6E542469846CAEB080A002047
:1055F000134688F80000D344099D079F05930135A1
:1056000009953A46FFF7DEBA2A463D7030460B99B7
:105610000A9B069DA8471AF0200F69D11AF0040FC3
:1056200000F03E81059D2B68043505951880099D85
:10563000013509954CE500BFA1490008E18E00083D
:105640000021082212A8FCF797FC1AF0100308BFEB
:10565000DDF814C0089303BFDCF800800CF1040CE3
:10566000CDF814C04FF000084FF0000A56AFFBF71A
:105670007DFF50453FF451AB2368626813F8011B6E
:1056800012A80090013A07F80A100AF1010A6260B4
:1056900023603A4630464146534602F073FA421CB4
:1056A0003FF43BAB08BB089909B9C8F80010089A49
:1056B000D344013D4FF0000A12B908F104089246A4
:1056C0006368002B06DD002DD1D1089D002D3FF42D
:1056D00022AF23E73046214604F0FEFB0028F2D03B
:1056E000BAF1000FF1D0FFF718BB0230E8D0DEE7C7
:1056F000DDF814C0DCF800300CF1040CCDF814C057
:10570000186094E7DDF814C02B46DCF80010009414
:105710003046012204F0FEFB059D2B1D00283FF4BE
:10572000FCAA834468E71CF0020F00F0A780059DE7
:105730002B680435059583ED000BC4E5002F7FF43D
:10574000F7ABFFF745BA26F4F06601224FF00008E8
:1057500030E51AF0010F0ED11AF0020F0BD0059DA3
:10576000079F2B685A46D1170435C3F800B059601B
:105770000595FFF726BADDF814C0079FDCF8003066
:105780000CF1040CC3F800B0CDF814C0FFF719BA3F
:105790000C9DCDF80CC0691C30460A2303F0A0FB19
:1057A0000F9DDDF80CC0421B0C9D7D49CDF80CC04F
:1057B0000DF2AB239D4224BF0DF2AA250C950C9847
:1057C00003F008FADDF80CC062E5089D0E982B1A6C
:1057D0005A42002B3FF45CADCDF830A0E4E726F44C
:1057E000F06601274FF00008E4E430462246CDF889
:1057F0000CC00BF1FF3B04F02FFB1AF8021CDDF884
:105800000CC0AAF1020A2BE55B1B52197F1984E830
:105810000C00FFF78DBBFBF7A9FEB8423FF47DAA51
:105820002368626813F8011B0DF5AC7C14A8009086
:10583000013A0CF8071001376260236030463B469E
:105840004146624602F09EF9431C3FF466AA0028D6
:1058500048D1C8F8000002F09BF8002847D0002F7C
:105860003FF454AE56A8C519013F304615F8011D46
:10587000224604F0F1FA002FF6D147E6DDF814C015
:105880000CF10407DCF8005003F0F0F8002800F0F9
:10589000818051EC180B08F03DF80597286012E55F
:1058A0001AF001027FF424AF1AF0020F3FF420AF88
:1058B000069D0B990A9B44F6A11CC0F6000C654599
:1058C00030463CD003F024FA059D2B68043505953D
:1058D00083E80300ABE6BC455646E2467FF473AE70
:1058E000FFF71BBA02300BD0D8F80000B3E7BB4477
:1058F000013D0746BAF1000F02D108F104085746EE
:105900006368002B3FF7F5AD3046214604F0E4FA1A
:1059100000283FF4EEAD002F7FF4FFA9F6E5DDF897
:105920002C80C2457FF654A9554615F8011D304616
:10593000224604F091FA4545F7D1FFF749B903F043
:1059400075FBC1E7029BCDF82080B44690461E4609
:105950004AE4DDF82C80C24588BF55467FF638A959
:1059600015F8011D3046224604F076FA4545F7D178
:10597000FFF72EB9DDF82C80C2457FF629A95546E0
:1059800015F8011D3046224604F066FA4545F7D168
:10599000FFF71EB903F064F8059785ED000A92E45D
:1059A00070ED0208054A4CF6A403D2F8FC00C0F6DC
:1059B000020300280CBF184610467047740B0010F5
:1059C00000B540F6743185B03F23C1F20001009369
:1059D00001934EF22C53D1F800210291C0F602033C
:1059E000FC3101F0E7FF05B000BD00BF40F21C70C4
:1059F000C1F2000010F0D0B840F21C70C1F20000FB
:105A000010F004B901F144032DE9F0410C46496B53
:105A1000994214D0A66B77003A4602F0EDFD054698
:105A200038B300EB0608404629463246FCF7B4F985
:105A3000C4F800806563A7630020BDE8F0814FF4DF
:105A40008071FBF787FEA0B194F8463060634FF495
:105A50008072A26380F8FF3094F8453080F8FE3001
:105A600094F844200346002003F8FD2F2360BDE88E
:105A7000F0814FF0FF30BDE8F08100BF70B54B1CE6
:105A800082B00D46064614466BD010B18369002BD8
:105A900070D0664B9C4272D0654B9C4200F0A8804F
:105AA000644B9C4202BF644B1B68DC68012001A967
:105AB00010F0E8F8A38903F4007212B2002A53D060
:105AC00003F4005212B22AB9A26F22F4005243F436
:105AD0000053A2674FF6DF7203F004011A4009B2C7
